{
  "contractName": "Test",
  "abi": [
    {
      "inputs": [],
      "name": "deposit",
      "outputs": [],
      "stateMutability": "payable",
      "type": "function",
      "payable": true
    },
    {
      "inputs": [
        {
          "internalType": "uint256",
          "name": "amount",
          "type": "uint256"
        }
      ],
      "name": "withdraw",
      "outputs": [],
      "stateMutability": "nonpayable",
      "type": "function"
    },
    {
      "inputs": [],
      "name": "getBalance",
      "outputs": [
        {
          "internalType": "uint256",
          "name": "",
          "type": "uint256"
        }
      ],
      "stateMutability": "view",
      "type": "function",
      "constant": true
    },
    {
      "inputs": [],
      "name": "getTVL",
      "outputs": [
        {
          "internalType": "uint256",
          "name": "",
          "type": "uint256"
        }
      ],
      "stateMutability": "view",
      "type": "function",
      "constant": true
    }
  ],
  "bytecode": "0x60806040526000805534801561001457600080fd5b5061031e806100246000396000f3fe60806040526004361061003f5760003560e01c806312065fe0146100445780632e1a7d4d1461006f57806397b3fcaa146100aa578063d0e30db0146100d5575b600080fd5b34801561005057600080fd5b506100596100df565b6040518082815260200191505060405180910390f35b34801561007b57600080fd5b506100a86004803603602081101561009257600080fd5b8101908080359060200190929190505050610126565b005b3480156100b657600080fd5b506100bf610281565b6040518082815260200191505060405180910390f35b6100dd61028a565b005b6000600160003373ffffffffffffffffffffffffffffffffffffffff1673ffffffffffffffffffffffffffffffffffffffff16815260200190815260200160002054905090565b80600160003373ffffffffffffffffffffffffffffffffffffffff1673ffffffffffffffffffffffffffffffffffffffff1681526020019081526020016000205410156101db576040517f08c379a000000000000000000000000000000000000000000000000000000000815260040180806020018281038252601a8152602001807f596f75722062616c616e636520697320746f6f20736d616c6c2100000000000081525060200191505060405180910390fd5b80600160003373ffffffffffffffffffffffffffffffffffffffff1673ffffffffffffffffffffffffffffffffffffffff168152602001908152602001600020600082825403925050819055508060008082825403925050819055503373ffffffffffffffffffffffffffffffffffffffff166108fc829081150290604051600060405180830381858888f1935050505015801561027d573d6000803e3d6000fd5b5050565b60008054905090565b34600160003373ffffffffffffffffffffffffffffffffffffffff1673ffffffffffffffffffffffffffffffffffffffff1681526020019081526020016000206000828254019250508190555034600080828254019250508190555056fea26469706673582212207a3209333dcd369ab03b5e02bce6e1dd255571221047189b046a29dd871cf8ba64736f6c63430006000033",
  "source": "pragma solidity >=0.6.0;\n\ncontract Test {\n    uint private tvl = 0;\n\n    mapping(address => uint) private balances;\n    \n    function deposit() public payable {\n        balances[msg.sender] += msg.value;\n        tvl += msg.value;\n    }\n\n    function withdraw(uint amount) public {\n        require(balances[msg.sender] >= amount, \"Your balance is too small!\");\n        balances[msg.sender] -= amount;\n        tvl -= amount;\n        payable(msg.sender).transfer(amount);\n    }\n\n    function getBalance() public view returns (uint) {\n        return balances[msg.sender];\n    }\n\n    function getTVL() public view returns (uint) {\n        return tvl;\n    }\n}\n",
  "sourcePath": "/Users/yannick/Repos/DApp/contracts/Test.sol",
  "compiler": {
    "name": "solc",
    "version": "0.6.0+commit.26b70077.Emscripten.clang"
  },
  "schemaVersion": "3.4.5",
  "updatedAt": "2022-02-28T14:59:15.314Z",
  "networkType": "ethereum",
  "devdoc": {
    "methods": {}
  },
  "userdoc": {
    "methods": {}
  }
}